:020000020000FC
:10000000BCC618C017C016C0D7C614C013C012C0D3
:1000100011C010C00FC08EC30DC00CC00BC00AC0F1
:1000200009C008C007C006C005C004C003C002C0A4
:0600300001C000C018959C
:10040000F3C2F2C2F1C2F0C2F0C2EFC2EEC2EDC25C
:10041000F1C2F0C2EFC2EEC2EDC2ECC2EBC2EAC260
:10042000EAC2E9C2E8C2E7C2EFC2EEC2FEC20EC330
:100430002BC32AC3DAC43DC327C326C32FC339C382
:1004400043C342C341C340C342C341C340C33FC38C
:100450004FC34EC34DC34CC34BC34AC349C348C328
:1004600052C351C354C353C352C351C350C34FC3E8
:100470004AC349C348C347C346C345C344C343C330
:100480004CC34BC34AC349C348C347C346C345C310
:1004900053C352C351C350C34FC34EC34DC34CC3C8
:1004A00054C357C352C355C350C353C34EC351C3A0
:1004B0009CC49BC49AC499C498C497C496C495C458
:1004C00094C493C492C491C447C346C345C344C3B0
:1004D00049C348C347C346C345C344C343C342C3D8
:1004E00084C492C382C4A6C340C350C360C370C354
:1004F0007CC48AC37AC49EC37CC386C390C39AC398
:10050000A4C3A3C3A2C3A1C3A0C39FC39EC39DC3CF
:100510009CC39BC39AC399C398C397C396C395C3FF
:10052000A6C3AEC3A4C3ACC3A2C3AAC3A0C3A8C37B
:10053000DFC2CDC2DDC2CBC2DBC2C9C2D9C2C7C213
:1005400054C453C452C451C407C306C305C304C32F
:1005500009C308C307C306C305C304C303C302C357
:1005600044C443C442C441C4F7C2F6C2F5C2F4C293
:10057000F9C2F8C2F7C2F6C2F5C2F4C2F3C2F2C2BF
:100580003EC233C432C431C4E7C2E6C270C2E4C260
:10059000E9C2E8C2E7C2E6C2E5C2E4C2E3C2E2C21F
:1005A00078C37AC376C37CC37EC37DC37CC37BC35D
:1005B0007DC37CC382C381C376C375C374C373C355
:1005C0007FC386C390C390C39AC39EC398C397C387
:1005D000A6C3A5C3A4C3A3C3A2C3A1C3A0C39FC3EF
:1005E000A3C3B2C3B6C3B5C3BAC3B9C3B8C3B7C351
:1005F000BDC3BCC3BBC3BAC3B9C3B8C3B7C3B6C317
:10060000000810182028303840485058606870782A
:1006100080889098A0A8B0B8C0C8D0D8E0E8F0F81A
:10062000FFF8F0E8E0D8D0C8C0B8B0A8A09890888B
:10063000807870686058504840383028201810087A
:1006400000081018202830384048505860687078EA
:1006500080889098A0A8B0B8C0C8D0D8E0E8F0F8DA
:10066000FFF8F0E8E0D8D0C8C0B8B0A8A09890884B
:10067000807870686058504840383028201810083A
:1006800000081018202830384048505860687078AA
:1006900080889098A0A8B0B8C0C8D0D8E0E8F0F89A
:1006A000FFF8F0E8E0D8D0C8C0B8B0A8A09890880B
:1006B00080787068605850484038302820181008FA
:1006C000000810182028303840485058606870786A
:1006D00080889098A0A8B0B8C0C8D0D8E0E8F0F85A
:1006E000FFF8F0E8E0D8D0C8C0B8B0A8A0989088CB
:1006F00080787068605850484038302820181008BA
:10070000426C6173746572426F6172642000359946
:10071000FECF9BB8AAB80BB94098409AABB89AB82C
:100720000895339BFECF419800000000000009B1FE
:10073000419A08953F933FB73F93F499B5C0F2991A
:10074000BCC0F199B7C0442389F4F7990AC0429814
:100750000000000099B100000000429A30E8F699CC
:100760009327F798FAD0449A44988BC0552359F4AC
:10077000892EADD0F79B03C0F798662782C0792EEB
:10078000982D542F06C0000000000000000000005B
:10079000E4D07F924230D9F0433071F10F931F9330
:1007A0002F933F9301E0502E352F330F32503323D8
:1007B00019F076943A95E9F7072D0370702E0170C1
:1007C000102F272D2270362F3395339538C00F9375
:1007D0001F932F933F9305E0502E523021F47694CF
:1007E000769476947694072D0F70702E0770102FE4
:1007F000272D2870362F23C00F931F932F933F93DD
:1008000003E0502E533031F47694769476947694B7
:10081000769404C0523059F476947694072D07707C
:10082000702E0370102F272D2470362F08C0072D2F
:100830000370702E0170102F272D2270362F332356
:1008400019F0000F3A95E9F7222321F0900F28F4D0
:100850009FEF03C0901B08F49927151520F0643012
:1008600010F4639505C0112319F4662309F06A9505
:100870003F912F911F910F917F905A95552309F029
:100880000AC0815040F4715030F4F09B08C08E2DA6
:100890007D2D289A28983F913FBF3F9118959AD077
:1008A000F598289A2898F7CF44980000449A0000B9
:1008B0004498E7CF90E851D0E4CFFF93EF93FB2D1E
:1008C000EC2D94914AD0C394EF91FF91E4CF449AD8
:1008D0000000449842D0000000000000000000002A
:1008E0000000000000000000000000000000000008
:1008F00000000000000000000000000000000000F8
:1009000000000000000000000000000000000000E7
:1009100000000000000000000000000000000000D7
:1009200000000000000000000000000000000000C7
:1009300000000000000000000000000000000000B7
:1009400000000000000000000000429800000000CD
:1009500099B100000000429A08950F931F93F39BF2
:1009600090E8092F0295102F0F700063107F2A98CE
:100970000EBD0DB507FFFDCF1EBD0DB507FFFDCFA9
:100980002A9A1F910F9108950F931F9311271860B2
:1009900010938100019514E1019F1092890000924B
:1009A00088001F910F9108950F93002700938000F6
:1009B00000938500009384000F9108950F9302E047
:1009C00000936F0000918100097F01600093810016
:1009D0000F9108950F9300918100087F009381008B
:1009E0000F9190926F00089500C201E290DEF59998
:1009F000E5DFFBC1FFCF95DE902FAFDFF6C191DEC3
:100A0000003111F4F69A01C0F6988BDEE02E89DEF3
:100A1000D02E8E2D7D2DF198F098F498F79840E027
:100A20005527F59AC1DFCADFE0C17BDEE02E79DE13
:100A3000D02E8E2D7D2DF198F098F498F698F79899
:100A400044E05527F59AB0DFB9DFCFC16ADEE02E6A
:100A500068DED02E8E2D7D2DF198F098F498F698C2
:100A6000F79A44E05527F59A9FDFA8DFBEC159DE0B
:100A70000F9357DEE02E55DED02E8E2D7D2D0F915B
:100A8000003111F4F69A01C0F698F198F09AF498B2
:100A900040E05527F59A88DF91DFA7C1F198F09AD9
:100AA000F498F698F79844E05527F59A7DDF86DFAD
:100AB0009CC1F198F09AF498F698F79A44E055277B
:100AC000F59A72DF7BDF91C100E821DE8EC129DE5D
:100AD000E02E27DED02E8E2D7D2DF198F098F49A01
:100AE000F798F69840E05527F59A5EDF67DF7DC1FD
:100AF000F198F09AF49AF798F69840E05527F59A0D
:100B000053DF5CDF72C1F59906C00BDE6EC1F5994B
:100B100002C007DEFCCF52DF68C1F599FCCF01DED1
:100B2000013F20F4063028F02FDF5FC100EF2CDFFB
:100B30005CC106E029DF59C1F599EDCFF2DDE02E69
:100B4000F0DDD02E8E2D7D2D50C1F599E4CF42DF02
:100B50004CC1F599E0CF49C1F59B47C101E2D7DD12
:100B60002DDF43C1F59B41C1FFCFDBDDE02ED9DD99
:100B7000D02E8E2D7D2DF198F098F498F698F79858
:100B800042E05527F59A10DF19DF2FC1CADDE02EAC
:100B9000C8DDD02E8E2D7D2DF198F098F498F69822
:100BA000F79A42E05527F59AFFDE08DF1EC1B9DD4E
:100BB000E02EB7DDD02E8E2D7D2DF198F098F49893
:100BC000F698F79843E05527F59AEEDEF7DE0DC16B
:100BD000A8DDE02EA6DDD02E8E2D7D2DF198F0988B
:100BE000F498F698F79A43E05527F59ADDDEE6DEAD
:100BF000FCC0F198F09AF498F698F79842E05527DF
:100C0000F59AD2DEDBDEF1C0F198F09AF498F6980E
:100C1000F79A42E05527F59AC7DED0DEE6C0F19894
:100C2000F09AF498F698F79843E05527F59ABCDEC9
:100C3000C5DEDBC0F198F09AF498F698F79A43E095
:100C40005527F59AB1DEBADED0C0F59964CF69DDDB
:100C5000E02E67DDD02E8E2D7D2DF19AF098F49840
:100C6000F69840E05527F59A9FDEA8DEBEC0F198C1
:100C7000F09AF49840E05527F59A96DE9FDEFFCF74
:100C8000F198F098F49840E05527F59A8DDE96DEBD
:100C9000ACC0F5989FDEA9C0F39A90E85EDEA5C0CF
:100CA000F3985BDEA2C0F59A89DE9FC00F93002700
:100CB000F3990A952CDD0F9198C0F098F59895C09E
:100CC000F59929CF2EDD00950000000020DD8DC0B4
:100CD000F59921CF0F9302E01ADD0000000001E03A
:100CE00016DD0F9182C035C0F59915CF0F93F7E04F
:100CF000E0E005910CDD0023E1F70F9176C0F59956
:100D00000ACF0FDD602E71C0F59905CF0F9302E079
:100D1000FEDC0000000001E0FADC0F9166C0F599EE
:100D2000FACE062DF4DC61C0F599F5CE06E0B02EC2
:100D300000E0C02E03ED28DEF198F098F498F698C4
:100D4000F29A32DE3BDEFFCFF599E5CE0027DFDCFD
:100D5000FFCFF599E0CE289A0000289846C0F59973
:100D6000DACE0AEDD4DC04EFD2DC3FC0F599D3CE65
:100D70000F93092DCCDC0F9138C099240FEFA02ED2
:100D800003EE009364000260009368000064009327
:100D90006C0002E005B90FE204B907E107B900E50C
:100DA0000CBD9DBCF39A00E0902FD7DD2CD00395AD
:100DB0000038D1F7F39802C0369918950FE608B9B4
:100DC0000FEF0DBF04E00EBF05DEEEDD9EBAF79A11
:100DD000C4DD369BFECF3599FECFAAB80AEA40980B
:100DE0000BB9409A9AB8ABB87894339BFECFF8947D
:100DF000F1DD7894419800000000000009B1419AAB
:100E0000F2E0E02F099420E210E01A951030E9F7A3
:080E10002A952030D1F7089566
:00000001FF
