:020000020000FC
:100000000C9465080C9434000C9434000C94340067
:100010000C9486080C9434000C9434000C94340036
:100020000C9434000C9434000C9434000C949A0416
:100030000C9434000C9434000C9434000C94340070
:100040000C9434000C9434000C9434000C94340060
:100050000C9434000C9434000C9434000C94340050
:0A0060000C9434000C943400189541
:100400000C94FB050C94FB050C94FB050C94FB056C
:100410000C94FD050C94FD050C94FD050C94FD0554
:100420000C9405060C9405060C9405060C94050620
:100430000C9405060C9405060C9405060C94050610
:100440000C9406060C9406060C9406060C940606FC
:100450000C9414060C9414060C942A060C94400672
:100460000C9466060C9466060C94A2080C94810603
:100470000C9466060C9466060C9473060C94810624
:100480000C948F060C948F060C948F060C948F0698
:100490000C9494060C9494060C9494060C94940674
:1004A0000C94AA060C94AA060C94AA060C94AA060C
:1004B0000C94AA060C94AA060C94AA060C94AA06FC
:1004C0000C94B8060C94B8060C94BE060C94BE06A8
:1004D0000C94BE060C94BE060C94BE060C94BE068C
:1004E0000C94B8060C94B8060C94B8060C94B80694
:1004F0000C94B8060C94B8060C94B8060C94B80684
:100500000C94C7060C94C7060C94C7060C94C70637
:100510000C94C7060C94C7060C94C7060C94C70627
:100520000C94DE060C94DE060C94DE060C94DE06BB
:100530000C94DE060C94DE060C94DE060C94DE06AB
:100540000C94EB060C94F1060C94EB060C94F1065B
:100550000C94EB060C94F1060C94EB060C94F1064B
:100560000C94A2080C94A2080C94A2080C94A20863
:100570000C94A2080C94A2080C94A2080C94A20853
:100580000C94A2080C94A2080C94A2080C94A20843
:100590000C94F5060C94F5060C94F5060C94F506EF
:1005A0000C94FF060C94FF060C94FF060C94FF06B7
:1005B0000C94FF060C94FF060C94FF060C94FF06A7
:1005C0000C94A2080C9469070C94A2080C9485075B
:1005D0000C9403070C9419070C942F070C944507EF
:1005E0000C94A2080C9469070C94A2080C9485073B
:1005F0000C945B070C9469070C9477070C9485079F
:100600000C9493070C9493070C9493070C94930702
:100610000C9493070C9493070C9493070C949307F2
:100620000C9493070C9493070C9493070C949307E2
:100630000C9493070C9493070C9493070C949307D2
:100640000C94AA070C94B5070C94AA070C94B50750
:100650000C94AA070C94B5070C94AA070C94B50740
:100660000C94AA060C9494060C94AA060C94940676
:100670000C94AA060C9494060C94AA060C94940666
:100680000C94A2080C94A2080C94A2080C94A20842
:100690000C94F5060C94F5060C94F5060C94F506EE
:1006A0000C94FF060C94FF060C94FF060C94FF06B6
:1006B0000C94FF060C94FF060C94FF060C94FF06A6
:1006C0000C94A2080C94A2080C94A2080C94A20802
:1006D0000C94F5060C94F5060C94F5060C94F506AE
:1006E0000C94FF060C94FF060C94FF060C94FF0676
:1006F0000C94FF060C94FF060C94FF060C94FF0666
:100700000C940D060C94A2080C94A2080C94A20858
:100710000C94F5060C94F5060C9456060C94F5060C
:100720000C94FF060C94FF060C94FF060C94FF0635
:100730000C94FF060C94FF060C94FF060C94FF0625
:100740000C94C1070C94C6070C94C1070C94CC07F9
:100750000C94D1070C94D1070C94D1070C94D107B9
:100760000C94D6070C94D6070C94DF070C94DF0783
:100770000C94D1070C94D1070C94D1070C94D10799
:100780000C94E3070C94EF070C94FE070C94FF07FE
:100790000C940D080C9415080C940D080C940D087D
:1007A0000C9424080C9424080C9424080C94240819
:1007B0000C9424080C9424080C9424080C94240809
:1007C0000C942C080C9441080C9448080C9448088C
:1007D0000C9450080C9450080C9450080C94500839
:1007E0000C945B080C945B080C945B080C945B08FD
:1007F0000C945B080C945B080C945B080C945B08ED
:100800000008101820283038404850586068707828
:1008100080889098A0A8B0B8C0C8D0D8E0E8F0F818
:10082000FFF8F0E8E0D8D0C8C0B8B0A8A098908889
:100830008078706860585048403830282018100878
:1008400000081018202830384048505860687078E8
:1008500080889098A0A8B0B8C0C8D0D8E0E8F0F8D8
:10086000FFF8F0E8E0D8D0C8C0B8B0A8A098908849
:100870008078706860585048403830282018100838
:1008800000081018202830384048505860687078A8
:1008900080889098A0A8B0B8C0C8D0D8E0E8F0F898
:1008A000FFF8F0E8E0D8D0C8C0B8B0A8A098908809
:1008B00080787068605850484038302820181008F8
:1008C0000008101820283038404850586068707868
:1008D00080889098A0A8B0B8C0C8D0D8E0E8F0F858
:1008E000FFF8F0E8E0D8D0C8C0B8B0A8A0989088C9
:1008F00080787068605850484038302820181008B8
:10090000426C6173746572426F6172642000359944
:10091000FECF9BB8AAB80BB94098409AABB89AB82A
:100920000895339BFECF419800000000000009B1FC
:10093000419A08953F933FB73F93F499B9C0F29914
:10094000C1C0F199BBC0442391F4F7990AC0429801
:100950000000000099B100000000429A30E8F699CA
:100960009327F7980E94B405449A44988DC0552364
:1009700061F4892E0E946D05F79B03C0F7986627E6
:1009800083C0792E982D542F07C00000000000006E
:10099000000000000E94B4057F924230D9F043303D
:1009A00071F10F931F932F933F9301E0502E352F3A
:1009B000330F3250332319F076943A95E9F7072D27
:1009C0000370702E0170102F272D2270362F339553
:1009D000339538C00F931F932F933F9305E0502E0C
:1009E000523021F47694769476947694072D0F7095
:1009F000702E0770102F272D2870362F23C00F93CD
:100A00001F932F933F9303E0502E533031F476948D
:100A1000769476947694769404C0523059F4769411
:100A20007694072D0770702E0370102F272D2470D9
:100A3000362F08C0072D0370702E0170102F272D40
:100A40002270362F332319F0000F3A95E9F722234D
:100A500021F0900F28F49FEF03C0901B08F4992712
:100A6000151520F0643010F4639505C0112319F4B6
:100A7000662309F06A953F912F911F910F917F9006
:100A80005A95552309F00AC0815040F4715030F452
:100A9000F09B08C08E2D7D2D289A28983F913FBF4E
:100AA0003F9118950E94F105F598289A2898F6CF5D
:100AB00044980000449A00004498E6CF90E80E94D1
:100AC000B405E2CFFF93EF93FB2DEC2D94910E94A0
:100AD000B405C394EF91FF91E1CF449A000044988C
:100AE0000E94B405000000000000000000000000AB
:100AF00000000000000000000000000000000000F6
:100B000000000000000000000000000000000000E5
:100B100000000000000000000000000000000000D5
:100B200000000000000000000000000000000000C5
:100B300000000000000000000000000000000000B5
:100B400000000000000000000000000000000000A5
:100B5000000000000000000042980000000099B171
:100B600000000000429A08950F931F93F39B90E8B2
:100B7000092F0295102F0F700063107F2A980EBD69
:100B80000DB507FFFDCF1EBD0DB507FFFDCF2A9A9E
:100B90001F910F9108950F931F93112718601093C1
:100BA0008100019514E1019F109289000092880054
:100BB0001F910F9108950F930027009380000093D9
:100BC0008500009384000F9108950F9302E0009335
:100BD0006F0000918100097F0160009381000F91F7
:100BE00008950F9300918100087F009381000F9179
:100BF00090926F0008950C94A20801E20E9487046D
:100C0000F5990E94E5050C94A208FFCF0E9491047B
:100C1000902F0E94B4050C94A2080E949104003108
:100C200019F4F69A0C941506F6980E949104E02E99
:100C30000E949104D02E8E2D7D2DF198F098F4987D
:100C4000F79840E05527F59A0E94DB050E94E505DC
:100C50000C94A2080E949104E02E0E949104D02ED0
:100C60008E2D7D2DF198F098F498F698F79844E041
:100C70005527F59A0E94DB050E94E5050C94A20811
:100C80000E949104E02E0E949104D02E8E2D7D2D85
:100C9000F198F098F498F698F79A44E05527F59A69
:100CA0000E94DB050E94E5050C94A2080E949104B5
:100CB0000F930E949104E02E0E949104D02E8E2D5D
:100CC0007D2D0F91003111F4F69A01C0F698F1983C
:100CD000F09AF49840E05527F59A0E94DB050E94AF
:100CE000E5050C94A208F198F09AF498F698F79814
:100CF00044E05527F59A0E94DB050E94E5050C9417
:100D0000A208F198F09AF498F698F79A44E05527DB
:100D1000F59A0E94DB050E94E5050C94A20800E804
:100D20000E9487040C94A2080E949104E02E0E9465
:100D30009104D02E8E2D7D2DF198F098F49AF7988D
:100D4000F69840E05527F59A0E94DB050E94E505DC
:100D50000C94A208F198F09AF49AF798F69840E06B
:100D60005527F59A0E94DB050E94E5050C94A20820
:100D7000F59909C00E9491040C94A208F59903C04A
:100D80000E949104FBCF0E94E5050C94A208F599FE
:100D90000C94C3060E949104013F30F4063048F0E1
:100DA0000E94CB050C94A20800EF0E94CB050C9486
:100DB000A20806E00E94CB050C94A208F5990C94B9
:100DC000C3060E949104E02E0E949104D02E8E2D25
:100DD0007D2D0C94A208F599D6CF0E94F1050C94B4
:100DE000A208F599D0CF0C94A208F59B0C94A20808
:100DF00001E20E9487040E94E5050C94A208F59B7D
:100E00000C94A208FFCF0E949104E02E0E9491044E
:100E1000D02E8E2D7D2DF198F098F498F698F798B5
:100E200042E05527F59A0E94DB050E94E5050C94E7
:100E3000A2080E949104E02E0E949104D02E8E2DD3
:100E40007D2DF198F098F498F698F79A42E055279E
:100E5000F59A0E94DB050E94E5050C94A2080E9409
:100E60009104E02E0E949104D02E8E2D7D2DF198BC
:100E7000F098F498F698F79843E05527F59A0E9471
:100E8000DB050E94E5050C94A2080E949104E02E67
:100E90000E949104D02E8E2D7D2DF198F098F4981B
:100EA000F698F79A43E05527F59A0E94DB050E94D1
:100EB000E5050C94A208F198F09AF498F698F79842
:100EC00042E05527F59A0E94DB050E94E5050C9447
:100ED000A208F198F09AF498F698F79A42E055270C
:100EE000F59A0E94DB050E94E5050C94A208F19892
:100EF000F09AF498F698F79843E05527F59A0E94EF
:100F0000DB050E94E5050C94A208F198F09AF4988C
:100F1000F698F79A43E05527F59A0E94DB050E9460
:100F2000E5050C94A208F5992ECF0E949104E02EBD
:100F30000E949104D02E8E2D7D2DF19AF098F49878
:100F4000F69840E05527F59A0E94DB050E94E505DA
:100F50000C94A208F198F09AF49840E05527F59A7D
:100F60000E94DB050E94E505FFCFF198F098F49808
:100F700040E05527F59A0E94DB050E94E5050C9498
:100F8000A208F5980E94F1050C94A208F39A90E843
:100F90000E94B4050C94A208F3980E94B4050C9426
:100FA000A208F59A0E94E5050C94A2080F93002769
:100FB000F3990A950E9487040F910C94A208F09867
:100FC000F5980C94A208F5990C94C3060E9491041C
:100FD0000095000000000E9487040C94A208F59977
:100FE0000C94C3060F9302E00E94870400000000E7
:100FF00001E00E9487040F910C94A20849C0F59962
:101000000C94C3060F93F9E0E0E005910E94870479
:101010000023D9F70F910C94A208F5990C94C306FC
:101020000E949104602E0C94A208F5990C94C306BA
:101030000F9302E00E9487040000000001E00E947C
:1010400087040F910C94A208F5990C94C306062D01
:101050000E9487040C94A208F5990C94C30608E03A
:10106000B02E00E0C02E03ED0E94CB05F198F09861
:10107000F498F698F29A0E94DB050E94E5050C941C
:101080003F08F5990C94C30600270E948704FFCF00
:10109000F5990C94C306289A000028980C94A2088D
:1010A000F5990C94C3060AED0E94870404EF0E9490
:1010B00087040C94A208F5990C94C3060F93092D8C
:1010C0000E9487040F910C94A20899240FEFA02E80
:1010D00003EE0093640002600093680000640093D4
:1010E0006C0002E005B90FE204B907E107B900E5B9
:1010F0000CBD9DBCF39A00E0902F0E94B4050E94A5
:10110000B30803950038C1F7F39802C036991895D3
:101110000FE608B90FEF0DBF08E00EBF0E94F10502
:101120000E94DB059EBAF79A0E94B405369BFECF5B
:101130003599FECFAAB80AEA40980BB9409A9AB8F6
:10114000ABB87894339BFECFF8940E94F105789465
:10115000419800000000000009B1419AE02FEE0F15
:10116000F1E0FF1F099420E210E01A951030E9F732
:081170002A952030D1F7089503
:00000001FF
