:020000020000FC
:100000000C944F080C9434000C9434000C9434007D
:100010000C9465080C9434000C9434000C94340057
:100020000C9434000C9434000C9434000C949C0414
:100030000C9434000C9434000C9434000C94340070
:100040000C9434000C9434000C9434000C94340060
:100050000C9434000C9434000C9434000C94340050
:0A0060000C9434000C943400189541
:100400000C940C060C940C060C940C060C940C0624
:100410000C940E060C940E060C940E060C940E060C
:100420000C9416060C9416060C9416060C941606DC
:100430000C9416060C9416060C9416060C941606CC
:100440000C9417060C9417060C9417060C941706B8
:100450000C941E060C941E060C9434060C9449064B
:100460000C945E060C945E060C9480080C9478063E
:100470000C945E060C945E060C946B060C94780645
:100480000C9485060C9485060C9485060C948506C0
:100490000C948A060C948A060C948A060C948A069C
:1004A0000C949F060C949F060C949F060C949F0638
:1004B0000C949F060C949F060C949F060C949F0628
:1004C0000C94AC060C94AC060C94B2060C94B206D8
:1004D0000C94B2060C94B2060C94B2060C94B206BC
:1004E0000C94AC060C94AC060C94AC060C94AC06C4
:1004F0000C94AC060C94AC060C94AC060C94AC06B4
:100500000C94BB060C94BB060C94BB060C94BB0667
:100510000C94BB060C94BB060C94BB060C94BB0657
:100520000C94D2060C94D2060C94D2060C94D206EB
:100530000C94D2060C94D2060C94D2060C94D206DB
:100540000C94DF060C94E5060C94DF060C94E5068B
:100550000C94DF060C94E5060C94DF060C94E5067B
:100560000C9480080C9480080C9480080C948008EB
:100570000C9480080C9480080C9480080C948008DB
:100580000C9480080C9480080C9480080C948008CB
:100590000C94E9060C94E9060C94E9060C94E9061F
:1005A0000C94F3060C94F3060C94F3060C94F306E7
:1005B0000C94F3060C94F3060C94F3060C94F306D7
:1005C0000C9480080C9458070C9480080C947207C3
:1005D0000C94F7060C940C070C9421070C94360726
:1005E0000C9480080C9458070C9480080C947207A3
:1005F0000C944B070C9458070C9465070C947207E5
:100600000C947F070C947F070C947F070C947F0752
:100610000C947F070C947F070C947F070C947F0742
:100620000C947F070C947F070C947F070C947F0732
:100630000C947F070C947F070C947F070C947F0722
:100640000C9495070C94A0070C9495070C94A007A4
:100650000C9495070C94A0070C9495070C94A00794
:100660000C949F060C948A060C949F060C948A06A0
:100670000C949F060C948A060C949F060C948A0690
:100680000C9480080C9480080C9480080C948008CA
:100690000C94E9060C94E9060C94E9060C94E9061E
:1006A0000C94F3060C94F3060C94F3060C94F306E6
:1006B0000C94F3060C94F3060C94F3060C94F306D6
:1006C0000C9480080C9480080C9480080C9480088A
:1006D0000C94E9060C94E9060C94E9060C94E906DE
:1006E0000C94F3060C94F3060C94F3060C94F306A6
:1006F0000C94F3060C94F3060C94F3060C94F30696
:100700000C9480080C9480080C9480080C94800849
:100710000C94E9060C94E9060C94E9060C94E9069D
:100720000C94F3060C94F3060C94F3060C94F30665
:100730000C94F3060C94F3060C94F3060C94F30655
:100740000C94AC070C94B1070C94AC070C94B7074D
:100750000C94BC070C94BC070C94BC070C94BC070D
:100760000C94C1070C94C1070C94CA070C94CA07D7
:100770000C94BC070C94BC070C94BC070C94BC07ED
:100780000C94CE070C94DA070C94E9070C94EA0752
:100790000C94F8070C9400080C94F8070C94F807D4
:1007A0000C940F080C940F080C940F080C940F086D
:1007B0000C940F080C940F080C940F080C940F085D
:1007C0000C9417080C942B080C9432080C943208E3
:1007D0000C943A080C943A080C943A080C943A0891
:1007E0000C9445080C9445080C9445080C94450855
:1007F0000C9445080C9445080C9445080C94450845
:100800000008101820283038404850586068707828
:1008100080889098A0A8B0B8C0C8D0D8E0E8F0F818
:10082000FFF8F0E8E0D8D0C8C0B8B0A8A098908889
:100830008078706860585048403830282018100878
:1008400000081018202830384048505860687078E8
:1008500080889098A0A8B0B8C0C8D0D8E0E8F0F8D8
:10086000FFF8F0E8E0D8D0C8C0B8B0A8A098908849
:100870008078706860585048403830282018100838
:1008800000081018202830384048505860687078A8
:1008900080889098A0A8B0B8C0C8D0D8E0E8F0F898
:1008A000FFF8F0E8E0D8D0C8C0B8B0A8A098908809
:1008B00080787068605850484038302820181008F8
:1008C0000008101820283038404850586068707868
:1008D00080889098A0A8B0B8C0C8D0D8E0E8F0F858
:1008E000FFF8F0E8E0D8D0C8C0B8B0A8A0989088C9
:1008F00080787068605850484038302820181008B8
:100900004C41425320426C6173746572426F617254
:1009100064003599FECF9BB8AAB80BB94098409AAD
:10092000ABB89AB80895339BFECF41980000000001
:10093000000009B1419A08953F933FB73F93F4995E
:10094000BCC0F299C4C0F199BEC0442379F4F799B0
:1009500007C042980000000099B100000000429AD0
:10096000F7980E94B905449A44988DC0552361F4C4
:10097000892E0E947205F79B03C0F798662783C0F3
:10098000792E982D542F07C00000000000000000B1
:1009900000000E94B9057F924230D9F0433071F1D6
:1009A0000F931F932F933F9301E0502E352F330F5A
:1009B0003250332319F076943A95E9F7072D0370F6
:1009C000702E0170102F272D2270362F33953395FE
:1009D00038C00F931F932F933F9305E0502E523052
:1009E00021F47694769476947694072D0F70702E79
:1009F0000770102F272D2870362F23C00F931F93B9
:100A00002F933F9303E0502E533031F47694769435
:100A100076947694769404C0523059F47694769411
:100A2000072D0770702E0370102F272D2470362F7E
:100A300008C0072D0370702E0170102F272D227013
:100A4000362F332319F0000F3A95E9F7222321F0CE
:100A5000900F28F49FEF03C0901B08F499271515F9
:100A600020F0643010F4639505C0112319F4662357
:100A700009F06A953F912F911F910F917F905A95A0
:100A8000552309F00AC0815040F4715030F4F09BB6
:100A900008C08E2D7D2D289A28983F913FBF3F9109
:100AA00018950E94F605F598289A2898F6CFF6989A
:100AB0008E2D7D2D289A2898F0CF44980000449AD6
:100AC00000004498E0CF9FE70E94B905DCCFFF9378
:100AD000EF93FB2DEC2D94910E94B905C394EF91F7
:100AE000FF91DBCF449A000044980E94B9050000B2
:100AF00000000000000000000000000000000000F6
:100B000000000000000000000000000000000000E5
:100B100000000000000000000000000000000000D5
:100B200000000000000000000000000000000000C5
:100B300000000000000000000000000000000000B5
:100B400000000000000000000000000000000000A5
:100B50000000000000000000000000000000000095
:100B6000000042980000000099B100000000429A85
:100B700008950F931F93F39B90E8092F0295102F70
:100B80000F700063107F2A980EBD0DB507FFFDCFD3
:100B90001EBD0DB507FFFDCF2A9A1F910F91089535
:100BA0000F931F931127186010938100019514E192
:100BB000019F10928900009288001F910F91089563
:100BC0000F9300270093800000938500009384001A
:100BD0000F9108950F9302E000936F000091810040
:100BE000097F0160009381000F9108950F93009198
:100BF0008100087F009381000F9190926F0008950B
:100C00000E949304E02E0E949304D02EF098F69A4E
:100C10000E94EA050C9480080C94800801E20E946E
:100C20008904F5990E94EA050C948008FFCF0E9480
:100C30009304902F0E94B9050C9480080E9493049D
:100C4000E02E0E949304D02E8E2D7D2DF198F098E9
:100C5000F498F79840E05527F59AF6980E94E00539
:100C60000E94EA050C9480080E949304E02E0E94E2
:100C70009304D02E8E2D7D2DF198F098F498F7984E
:100C800044E05527F59A0E94E0050E94EA050C947D
:100C900080080E949304E02E0E949304D02E8E2D93
:100CA0007D2DF198F098F498F79A44E05527F59A3D
:100CB0000E94E0050E94EA050C948008F198F09AE1
:100CC000F49840E05527F59AF6980E94E0050E94B6
:100CD000EA050C948008F198F09AF498F79844E0AB
:100CE0005527F59A0E94E0050E94EA050C948008B9
:100CF000F198F09AF498F79A44E05527F59A0E94F3
:100D0000E0050E94EA050C94800800E80E9489042E
:100D10000C9480080E949304E02E0E949304D02E2D
:100D20008E2D7D2DF198F098F49AF79840E0552794
:100D3000F59A0E94E0050E94EA050C948008F1985B
:100D4000F09AF49AF79840E05527F59A0E94E0054A
:100D50000E94EA050C948008F59909C00E9493044A
:100D60000C948008F59903C00E949304FBCF0E9465
:100D7000EA050C948008F5990C94B7060E94930438
:100D8000013F30F4063048F00E94D0050C948008F2
:100D900000EF0E94D0050C94800806E00E94D00568
:100DA0000C948008F5990C94B7060E949304E02EE9
:100DB0000E949304D02E8E2D7D2D0C948008F599E1
:100DC000D6CF0E94F6050C948008F599D0CF0C94EC
:100DD0008008F59B0C94800801E20E9489040E941F
:100DE000EA050C948008F59B0C948008FFCF0E94C4
:100DF0009304E02E0E949304D02E8E2D7D2DF19829
:100E0000F098F498F79842E05527F59A0E94E0058B
:100E10000E94EA050C9480080E949304E02E0E9430
:100E20009304D02E8E2D7D2DF198F098F498F79A9A
:100E300042E05527F59A0E94E0050E94EA050C94CD
:100E400080080E949304E02E0E949304D02E8E2DE1
:100E50007D2DF198F098F498F79843E05527F59A8E
:100E60000E94E0050E94EA050C9480080E94930409
:100E7000E02E0E949304D02E8E2D7D2DF198F098B7
:100E8000F498F79A43E05527F59A0E94E0050E94EE
:100E9000EA050C948008F198F09AF498F79842E0EB
:100EA0005527F59A0E94E0050E94EA050C948008F7
:100EB000F198F09AF498F79A42E05527F59A0E9433
:100EC000E0050E94EA050C948008F198F09AF498E5
:100ED000F79843E05527F59A0E94E0050E94EA053D
:100EE0000C948008F198F09AF498F79A43E055270B
:100EF000F59A0E94E0050E94EA050C948008F59995
:100F000036CF0E949304E02E0E949304D02E8E2DA3
:100F10007D2DF19AF098F49840E05527F59A0E94BB
:100F2000E0050E94EA050C948008F198F09AF49884
:100F300040E05527F59A0E94E0050E94EA05FFCFA0
:100F4000F198F098F49840E05527F59A0E94E00552
:100F50000E94EA050C948008F5980E94F6050C940E
:100F60008008F39A90E80E94B9050C948008F398E1
:100F70000E94B9050C948008F59A0E94EA050C9429
:100F800080080F930027F3990A950E9489040F9116
:100F90000C948008F098F5980C948008F5990C94BE
:100FA000B7060E9493040095000000000E94890487
:100FB0000C948008F5990C94B7060F9302E00E94F8
:100FC00089040000000001E00E9489040F910C9444
:100FD000800848C0F5990C94B7060F93F9E0E0E05B
:100FE00005910E9489040023D9F70F910C94800881
:100FF000F5990C94B7060E949304602E0C94800817
:10100000F5990C94B7060F9302E00E948904000042
:10101000000000E00E9489040F910C948008F5996B
:101020000C94B706062D0E9489040C948008F5994B
:101030000C94B70608E0B02E00E0C02E03ED0E942D
:10104000D005F198F098F498F29A0E94E0050E9479
:10105000EA050C942908F5990C94B70600270E941C
:101060008904FFCFF5990C94B706289A00002898B8
:101070000C948008F5990C94B7060AED0E94890437
:1010800004EF0E9489040C948008F5990C94B7062B
:101090000F93092D0E9489040F910C9480089924C4
:1010A0000FEFA02E03EE0093640000E50CBD9DBC85
:1010B000026000936800006400936C0002E005B9D0
:1010C0000FE204B907E107B902C0369918950FE697
:1010D00008B90FEF0DBF08E00EBF0E94F6050E9491
:1010E000E0059EBAF79A00E80E94B905369BFECF4C
:1010F000AAB80AEA40980BB9409A9AB8ABB8789463
:10110000339BFECFF8940E94F60578944198000036
:101110000000000009B1419AE02FEE0FF1E0FF1F3F
:041120000994EECF71
:00000001FF
