:020000020000FC
:100000000C941A090C9434000C9434000C943400B1
:100010000C9430090C9434000C9434000C9434008B
:100020000C9434000C9434000C9434000C94670548
:100030000C9434000C9434000C9434000C94340070
:100040000C9434000C9434000C9434000C94340060
:100050000C9434000C9434000C9434000C94340050
:0A0060000C9434000C943400189541
:100400000C94D7060C94D7060C94D7060C94D706F8
:100410000C94D9060C94D9060C94D9060C94D906E0
:100420000C94E1060C94E1060C94E1060C94E106B0
:100430000C94E1060C94E1060C94E1060C94E106A0
:100440000C94E2060C94E2060C94E2060C94E2068C
:100450000C94E9060C94E9060C94FF060C9414071E
:100460000C9429070C9429070C944E090C9443070B
:100470000C9429070C9429070C9436070C94430715
:100480000C9450070C9450070C9450070C94500790
:100490000C9455070C9455070C9455070C9455076C
:1004A0000C946A070C946A070C946A070C946A0708
:1004B0000C946A070C946A070C946A070C946A07F8
:1004C0000C9477070C9477070C947D070C947D07A8
:1004D0000C947D070C947D070C947D070C947D078C
:1004E0000C9477070C9477070C9477070C94770794
:1004F0000C9477070C9477070C9477070C94770784
:100500000C9486070C9486070C9486070C94860737
:100510000C9486070C9486070C9486070C94860727
:100520000C949D070C949D070C949D070C949D07BB
:100530000C949D070C949D070C949D070C949D07AB
:100540000C94AA070C94B0070C94AA070C94B0075B
:100550000C94AA070C94B0070C94AA070C94B0074B
:100560000C944E090C944E090C944E090C944E09AF
:100570000C944E090C944E090C944E090C944E099F
:100580000C944E090C944E090C944E090C944E098F
:100590000C94B4070C94B4070C94B4070C94B407EF
:1005A0000C94BE070C94BE070C94BE070C94BE07B7
:1005B0000C94BE070C94BE070C94BE070C94BE07A7
:1005C0000C944E090C9423080C944E090C943D088D
:1005D0000C94C2070C94D7070C94EC070C940108F8
:1005E0000C944E090C9423080C944E090C943D086D
:1005F0000C9416080C9423080C9430080C943D08B5
:100600000C944A080C944A080C944A080C944A0822
:100610000C944A080C944A080C944A080C944A0812
:100620000C944A080C944A080C944A080C944A0802
:100630000C944A080C944A080C944A080C944A08F2
:100640000C9460080C946B080C9460080C946B0874
:100650000C9460080C946B080C9460080C946B0864
:100660000C946A070C9455070C946A070C94550770
:100670000C946A070C9455070C946A070C94550760
:100680000C944E090C944E090C944E090C944E098E
:100690000C94B4070C94B4070C94B4070C94B407EE
:1006A0000C94BE070C94BE070C94BE070C94BE07B6
:1006B0000C94BE070C94BE070C94BE070C94BE07A6
:1006C0000C944E090C944E090C944E090C944E094E
:1006D0000C94B4070C94B4070C94B4070C94B407AE
:1006E0000C94BE070C94BE070C94BE070C94BE0776
:1006F0000C94BE070C94BE070C94BE070C94BE0766
:100700000C944E090C944E090C944E090C944E090D
:100710000C94B4070C94B4070C94B4070C94B4076D
:100720000C94BE070C94BE070C94BE070C94BE0735
:100730000C94BE070C94BE070C94BE070C94BE0725
:100740000C9477080C947C080C9477080C9482081D
:100750000C9487080C9487080C9487080C948708DD
:100760000C948C080C948C080C9495080C949508A7
:100770000C9487080C9487080C9487080C948708BD
:100780000C9499080C94A5080C94B4080C94B50822
:100790000C94C3080C94CB080C94C3080C94C308A5
:1007A0000C94DA080C94DA080C94DA080C94DA0841
:1007B0000C94DA080C94DA080C94DA080C94DA0831
:1007C0000C94E2080C94F6080C94FD080C94FD08B7
:1007D0000C9405090C9405090C9405090C94050961
:1007E0000C9410090C9410090C9410090C94100925
:1007F0000C9410090C9410090C9410090C94100915
:100800000008101820283038404850586068707828
:1008100080889098A0A8B0B8C0C8D0D8E0E8F0F818
:10082000FFF8F0E8E0D8D0C8C0B8B0A8A098908889
:100830008078706860585048403830282018100878
:1008400000081018202830384048505860687078E8
:1008500080889098A0A8B0B8C0C8D0D8E0E8F0F8D8
:10086000FFF8F0E8E0D8D0C8C0B8B0A8A098908849
:100870008078706860585048403830282018100838
:1008800000081018202830384048505860687078A8
:1008900080889098A0A8B0B8C0C8D0D8E0E8F0F898
:1008A000FFF8F0E8E0D8D0C8C0B8B0A8A098908809
:1008B00080787068605850484038302820181008F8
:1008C0000008101820283038404850586068707868
:1008D00080889098A0A8B0B8C0C8D0D8E0E8F0F858
:1008E000FFF8F0E8E0D8D0C8C0B8B0A8A0989088C9
:1008F00080787068605850484038302820181008B8
:100900004C41425320426C6173746572426F617254
:1009100064003599FECF9BB8AAB80BB94098409AAD
:10092000ABB89AB80F930A2D0E94AA040F910E94A7
:10093000AA040895339BFECF4198000000000000F8
:1009400009B1419A0F930DED0E94AA040F910E94E4
:10095000AA0408950F9329980000000000000000E9
:100960000000000000000000000000000000000087
:10097000000000000000069518F40000299A03C04A
:1009800029980000000000000000000000000000A6
:100990000000000000000000000000000000000057
:1009A000069518F40000299A03C029980000000059
:1009B0000000000000000000000000000000000037
:1009C00000000000000000000000069518F4000080
:1009D000299A03C0299800000000000000000000D0
:1009E0000000000000000000000000000000000007
:1009F00000000000069518F40000299A03C0299809
:100A000000000000000000000000000000000000E6
:100A1000000000000000000000000000000006953B
:100A200018F40000299A03C0299800000000000073
:100A300000000000000000000000000000000000B6
:100A40000000000000000000069518F40000299A3C
:100A500003C0299800000000000000000000000012
:100A60000000000000000000000000000000000086
:100A70000000069518F40000299A03C02998000088
:100A80000000000000000000000000000000000066
:100A9000000000000000000000000000069518F4AF
:100AA0000000299A03C029980000000000000000FF
:100AB0000000000000000000000000000000000036
:100AC0000000000000000000299A0F9108953F9354
:100AD0003FB73F93F499BCC0F299C4C0F199BEC02E
:100AE000442379F4F79907C042980000000099B1B7
:100AF00000000000429AF7980E948406449A4498A5
:100B00008DC0552361F4892E0E943D06F79B03C0DA
:100B1000F798662783C0792E982D542F07C00000C0
:100B200000000000000000000E9484067F92423016
:100B3000D9F0433071F10F931F932F933F9301E04E
:100B4000502E352F330F3250332319F076943A95C7
:100B5000E9F7072D0370702E0170102F272D2270DA
:100B6000362F3395339538C00F931F932F933F93B0
:100B700005E0502E523021F4769476947694769453
:100B8000072D0F70702E0770102F272D2870362F0D
:100B900023C00F931F932F933F9303E0502E5330A6
:100BA00031F47694769476947694769404C05230A8
:100BB00059F476947694072D0770702E0370102FD9
:100BC000272D2470362F08C0072D0370702E01705A
:100BD000102F272D2270362F332319F0000F3A954E
:100BE000E9F7222321F0900F28F49FEF03C0901B18
:100BF00008F49927151520F0643010F4639505C0AA
:100C0000112319F4662309F06A953F912F911F91E2
:100C10000F917F905A95552309F00AC0815040F4F6
:100C2000715030F4F09B08C08E2D7D2D289A2898A5
:100C30003F913FBF3F9118950E94C106F598289AB1
:100C40002898F6CFF6988E2D7D2D289A2898F0CFEB
:100C500044980000449A00004498E0CF9FE70E9427
:100C60008406DCCFFF93EF93FB2DEC2D94910E9433
:100C70008406C394EF91FF91DBCF449A000044981F
:100C80000E94840600000000000000000000000038
:100C90000000000000000000000000000000000054
:100CA0000000000000000000000000000000000044
:100CB0000000000000000000000000000000000034
:100CC0000000000000000000000000000000000024
:100CD0000000000000000000000000000000000014
:100CE0000000000000000000000000000000000004
:100CF000000000000000000042980000000099B1D0
:100D000000000000429A08950F931F93F39B90E810
:100D1000092F0295102F0F700063107F2A980EBDC7
:100D20000DB507FFFDCF1EBD0DB507FFFDCF2A9AFC
:100D30001F910F9108950F931F931127186010931F
:100D40008100019514E1019F1092890000928800B2
:100D50001F910F9108950F93002700938000009337
:100D60008500009384000F9108950F9302E0009393
:100D70006F0000918100097F0160009381000F9155
:100D800008950F9300918100087F009381000F91D7
:100D900090926F0008950E949A04E02E0E949A0497
:100DA000D02EF098F69A0E94B5060C944E090C9439
:100DB0004E0901E20E948904F5990E94B5060C943F
:100DC0004E09FFCF0E949A04902F0E9484060C9433
:100DD0004E090E949A04E02E0E949A04D02E8E2D75
:100DE0007D2DF198F098F498F79840E05527F59A02
:100DF000F6980E94AB060E94B5060C944E090E941C
:100E00009A04E02E0E949A04D02E8E2D7D2DF1980A
:100E1000F098F498F79844E05527F59A0E94AB06AD
:100E20000E94B5060C944E090E949A04E02E0E947E
:100E30009A04D02E8E2D7D2DF198F098F498F79A83
:100E400044E05527F59A0E94AB060E94B5060C9423
:100E50004E09F198F09AF49840E05527F59AF698E3
:100E60000E94AB060E94B5060C944E09F198F09AC8
:100E7000F498F79844E05527F59A0E94AB060E9433
:100E8000B5060C944E09F198F09AF498F79A44E05C
:100E90005527F59A0E94AB060E94B5060C944E09A0
:100EA00000E80E9489040C944E090E949A04E02EE6
:100EB0000E949A04D02E8E2D7D2DF198F098F49AF0
:100EC000F79840E05527F59A0E94AB060E94B506B8
:100ED0000C944E09F198F09AF49AF79840E055274F
:100EE000F59A0E94AB060E94B5060C944E09F5993E
:100EF00009C00E949A040C944E09F59903C00E94FF
:100F00009A04FBCF0E94B5060C944E09F5990C94F7
:100F100082070E949A04013F30F4063048F00E9494
:100F20009B060C944E0900EF0E949B060C944E0900
:100F300006E00E949B060C944E09F5990C948207DA
:100F40000E949A04E02E0E949A04D02E8E2D7D2DB0
:100F50000C944E09F599D6CF0E94C1060C944E0907
:100F6000F599D0CF0C944E09F59B0C944E0901E2F3
:100F70000E9489040E94B5060C944E09F59B0C94BE
:100F80004E09FFCF0E949A04E02E0E949A04D02EB0
:100F90008E2D7D2DF198F098F498F79842E0552722
:100FA000F59A0E94AB060E94B5060C944E090E9469
:100FB0009A04E02E0E949A04D02E8E2D7D2DF19859
:100FC000F098F498F79A42E05527F59A0E94AB06FC
:100FD0000E94B5060C944E090E949A04E02E0E94CD
:100FE0009A04D02E8E2D7D2DF198F098F498F798D4
:100FF00043E05527F59A0E94AB060E94B5060C9473
:101000004E090E949A04E02E0E949A04D02E8E2D42
:101010007D2DF198F098F498F79A43E05527F59ACA
:101020000E94AB060E94B5060C944E09F198F09A06
:10103000F498F79842E05527F59A0E94AB060E9473
:10104000B5060C944E09F198F09AF498F79A42E09C
:101050005527F59A0E94AB060E94B5060C944E09DE
:10106000F198F09AF498F79843E05527F59A0E9482
:10107000AB060E94B5060C944E09F198F09AF498CC
:10108000F79A43E05527F59A0E94AB060E94B506F1
:101090000C944E09F59936CF0E949A04E02E0E94D6
:1010A0009A04D02E8E2D7D2DF19AF098F49840E080
:1010B0005527F59A0E94AB060E94B5060C944E097E
:1010C000F198F09AF49840E05527F59A0E94AB0603
:1010D0000E94B506FFCFF198F098F49840E05527AC
:1010E000F59A0E94AB060E94B5060C944E09F5983D
:1010F0000E94C1060C944E09F39A90E80E9484065F
:101100000C944E09F3980E9484060C944E09F59AAB
:101110000E94B5060C944E090F930027F3990A9587
:101120000E9489040F910C944E09F098F5980C9444
:101130004E09F5990C9482070E949A0400950000CC
:1011400000000E9489040C944E09F5990C948207C2
:101150000F9302E00E9489040000000001E00E9459
:1011600089040F910C944E0948C0F5990C9482079C
:101170000F93F9E0E0E005910E9489040023D9F77C
:101180000F910C944E09F5990C9482070E949A04D1
:10119000602E0C944E09F5990C9482070F9302E08F
:1011A0000E9489040000000000E00E9489040F9161
:1011B0000C944E09F5990C948207062D0E9489041F
:1011C0000C944E09F5990C94820708E0B02E00E0CB
:1011D000C02E03ED0E949B06F198F098F498F29AC5
:1011E0000E94AB060E94B5060C94F408F5990C9485
:1011F000820700270E948904FFCFF5990C9482078B
:10120000289A000028980C944E09F5990C948207AE
:101210000AED0E94890404EF0E9489040C944E098F
:10122000F5990C9482070F93092D0E9489040F9160
:101230000C944E0999240FEFA02E03EE0093640046
:1012400000E50CBD9DBC0260009368000064009343
:101250006C0002E005B90FE204B907E107B902C06A
:10126000369918950FE608B90FEF0DBF08E00EBFCD
:101270000E94C1060E94AB069EBAF79A00E80E943F
:101280008406369BFECFAAB80AEA40980BB9409A6A
:101290009AB8ABB80AEA0E94AA047894339BFECFAE
:1012A000F8940E94C1067894419800000000000064
:1012B00009B1419A0F930CEC0E94AA040F910E946D
:0E12C000AA04E02FEE0FF1E0FF1F0994E7CF24
:00000001FF
