:020000020000FC
:100000000C94BC070C9434000C9434000C94340011
:100010000C9434000C9434000C9434000C94340090
:100020000C9434000C9434000C9434000C94AC0404
:100030000C9434000C9434000C9434000C94340070
:100040000C9434000C9434000C9434000C94340060
:100050000C9434000C9434000C9434000C94340050
:0A0060000C9434000C943400189541
:100400000C94DB070C94DB070C94DB070C94DB07E4
:100410000C9409060C94DB070C94DB070C94DB07A7
:100420000C94DB070C94DB070C94DB070C94DB07C4
:100430000C94DB070C94DB070C94DB070C94DB07B4
:100440000C940D060C94DB070C94DB070C94DB0773
:100450000C9416060C94DB070C9427060C943806B3
:100460000C94DB070C94DB070C94DB070C94DB0784
:100470000C9449060C94DB070C9455060C94620608
:100480000C946F060C94DB070C94DB070C94DB07D1
:100490000C9473060C94DB070C94DB070C94DB07BD
:1004A0000C94DB070C94DB070C94DB070C94DB0744
:1004B0000C9484060C94DB070C94DB070C94DB078C
:1004C0000C94DB070C94DB070C94DB070C94DB0724
:1004D0000C94DB070C94DB070C94DB070C94DB0714
:1004E0000C94DB070C94DB070C94DB070C94DB0704
:1004F0000C94DB070C94DB070C94DB070C94DB07F4
:100500000C9491060C94DB070C94DB070C94DB072E
:100510000C94DB070C94DB070C94DB070C94DB07D3
:100520000C94A4060C94DB070C94DB070C94DB07FB
:100530000C94DB070C94DB070C94DB070C94DB07B3
:100540000C94DB070C94DB070C94DB070C94DB07A3
:100550000C94DB070C94DB070C94DB070C94DB0793
:100560000C94DB070C94DB070C94DB070C94DB0783
:100570000C94DB070C94DB070C94DB070C94DB0773
:100580000C94DB070C94DB070C94DB070C94DB0763
:100590000C94DB070C94DB070C94DB070C94DB0753
:1005A0000C94DB070C94DB070C94DB070C94DB0743
:1005B0000C94DB070C94DB070C94DB070C94DB0733
:1005C0000C94DB070C94DB070C94DB070C94DB0723
:1005D0000C94A9060C94BA060C94CB060C94DC0679
:1005E0000C94DB070C94DB070C94DB070C94DB0703
:1005F0000C94ED060C94FA060C9407070C9414075F
:100600000C9421070C94DB070C94DB070C94DB079C
:100610000C94DB070C94DB070C94DB070C94DB07D2
:100620000C94DB070C94DB070C94DB070C94DB07C2
:100630000C94DB070C94DB070C94DB070C94DB07B2
:100640000C9431070C943F070C94DB070C94DB07E8
:100650000C94DB070C94DB070C94DB070C94DB0792
:100660000C9484060C9473060C94DB070C94DB0743
:100670000C94DB070C94DB070C94DB070C94DB0772
:100680000C94DB070C94DB070C94DB070C94DB0762
:100690000C94DB070C94DB070C94DB070C94DB0752
:1006A0000C94DB070C94DB070C94DB070C94DB0742
:1006B0000C94DB070C94DB070C94DB070C94DB0732
:1006C0000C94DB070C94DB070C94DB070C94DB0722
:1006D0000C94DB070C94DB070C94DB070C94DB0712
:1006E0000C94DB070C94DB070C94DB070C94DB0702
:1006F0000C94DB070C94DB070C94DB070C94DB07F2
:100700000C94DB070C94DB070C94DB070C94DB07E1
:100710000C94DB070C94DB070C94DB070C94DB07D1
:100720000C94DB070C94DB070C94DB070C94DB07C1
:100730000C94DB070C94DB070C94DB070C94DB07B1
:100740000C944B070C944E070C94DB070C94560743
:100750000C945D070C94DB070C94DB070C94DB070F
:100760000C9460070C94DB070C9468070C94DB076F
:100770000C94DB070C94DB070C94DB070C94DB0771
:100780000C946A070C9472070C94DB070C947D0799
:100790000C9487070C948B070C94DB070C94DB07F5
:1007A0000C9496070C94DB070C94DB070C94DB0786
:1007B0000C94DB070C94DB070C94DB070C94DB0731
:1007C0000C949A070C94DB070C94AE070C94DB078F
:1007D0000C94B2070C94DB070C94DB070C94DB073A
:1007E0000C94B6070C94DB070C94DB070C94DB0726
:1007F0000C94DB070C94DB070C94DB070C94DB07F1
:100800000008101820283038404850586068707828
:1008100080889098A0A8B0B8C0C8D0D8E0E8F0F818
:10082000FFF8F0E8E0D8D0C8C0B8B0A8A098908889
:100830008078706860585048403830282018100878
:1008400000081018202830384048505860687078E8
:1008500080889098A0A8B0B8C0C8D0D8E0E8F0F8D8
:10086000FFF8F0E8E0D8D0C8C0B8B0A8A098908849
:100870008078706860585048403830282018100838
:1008800000081018202830384048505860687078A8
:1008900080889098A0A8B0B8C0C8D0D8E0E8F0F898
:1008A000FFF8F0E8E0D8D0C8C0B8B0A8A098908809
:1008B00080787068605850484038302820181008F8
:1008C0000008101820283038404850586068707868
:1008D00080889098A0A8B0B8C0C8D0D8E0E8F0F858
:1008E000FFF8F0E8E0D8D0C8C0B8B0A8A0989088C9
:1008F00080787068605850484038302820181008B8
:100900004C41425320426C6173746572426F617254
:1009100064003599FECFFFB6F894AAB80BB9000071
:100920004098409AABB800009AB80000FFBE089506
:10093000339BFECFFFB6F89441980000000009B148
:10094000419AFFBE08950F930E949804E02E0E94E2
:100950009804D02E0F9108953F933FB73F93F49999
:10096000A7C0F299AFC0F199A9C0442319F40E941D
:100970006D058DC0552361F4892E0E946D05F79B8E
:1009800003C0F798662783C0792E982D542F07C08F
:10099000000000000000000000000E94C0057F92DF
:1009A0004230D9F0433071F10F931F932F933F934F
:1009B00001E0502E352F330F3250332319F0769447
:1009C0003A95E9F7072D0370702E0170102F272D2F
:1009D0002270362F3395339538C00F931F932F9382
:1009E0003F9305E0502E523021F47694769476941D
:1009F0007694072D0F70702E0770102F272D2870FA
:100A0000362F23C00F931F932F933F9303E0502E55
:100A1000533031F47694769476947694769404C038
:100A2000523059F476947694072D0770702E037027
:100A3000102F272D2470362F08C0072D0370702E1D
:100A40000170102F272D2270362F332319F0000F3D
:100A50003A95E9F7222321F0900F28F49FEF03C085
:100A6000901B08F49927151520F0643010F4639555
:100A700005C0112319F4662309F06A953F912F915F
:100A80001F910F917F905A95552309F00DC0815009
:100A900058F4715048F4289A00002898F09B0E945E
:100AA000FE05F0990E94A8053F913FBF3F91189520
:100AB00044980000449A00004498E9CF9FE70E94C0
:100AC000C005E5CFFF93EF93FB2DEC2D94910E9491
:100AD000C005C394EF91FF91E7CF449A000044987A
:100AE0000E94C0050000000000000000000000009F
:100AF00000000000000000000000000000000000F6
:100B000000000000000000000000000000000000E5
:100B100000000000000000000000000000000000D5
:100B200000000000000000000000000000000000C5
:100B300000000000429800000000000000000000DB
:100B400099B100000000000000000000429A0895E2
:100B50008E2D7D2D08950F931F9303E018E91A95AC
:100B6000F1F70A95E1F700001F910F9108950F9397
:100B700000E50CBD9DBC0F91F3980E94C00508953F
:100B80000F931F93F39B9FE7092F0295102F0F7070
:100B90000063107F2A980EBD0DB507FFFDCF1EBD67
:100BA0000DB507FFFDCF2A9A1F910F9108950F935E
:100BB0001F931127186010938100019514E1019F84
:100BC00010928900009288001F910F9108950F9351
:100BD00000270093800000938500009384000F910C
:100BE00008950F9302E000936F0000918100097F48
:100BF0000160009381000F9178940895F8940F9309
:100C000000918100087F009381000F9190926F0006
:100C1000089508E80E94890408950E949804902F7E
:100C2000FFB6F8940E94C005FFBE08950E94FE051D
:100C30000E94A3040E94A805F198F098F498F798F0
:100C400040E055270E94E7050E94F10508950E94A3
:100C5000FE050E94A3040E94A805F198F098F4985C
:100C6000F79844E055270E94E7050E94F105089592
:100C70000E94FE050E94A3040E94A805F198F09826
:100C8000F498F79A44E055270E94E7050E94F10581
:100C900008950E94FE05F198F09AF49840E05527D7
:100CA0000E94E7050E94F10508950E94FE05F19853
:100CB000F09AF498F79844E055270E94E7050E94BF
:100CC000F10508950E94FE05F198F09AF498F79ABC
:100CD00044E055270E94E7050E94F10508950FE7BB
:100CE0000E94890408950E94FE050E94A3040E94A8
:100CF000A805F198F098F49AF79840E055270E94DB
:100D0000E7050E94F10508950E94FE05F198F09A0A
:100D1000F49AF79840E055270E94E7050E94F105F4
:100D200008950E94FE050E949804013F28F40630B1
:100D300038F00E94D705089500EF0E94D705089566
:100D400006E00E94D70508950E94A3040E94A8050A
:100D500008950E94FE050E94A3040E94A805F19830
:100D6000F098F498F79842E055270E94E7050E9412
:100D7000F10508950E94FE050E94A3040E94A805A3
:100D8000F198F098F498F79A42E055270E94E70509
:100D90000E94F10508950E94FE050E94A3040E948E
:100DA000A805F198F098F498F79843E055270E9429
:100DB000E7050E94F10508950E94FE050E94A30424
:100DC0000E94A805F198F098F498F79A43E0552707
:100DD0000E94E7050E94F10508950E94FE05F19822
:100DE000F09AF498F79842E055270E94E7050E9490
:100DF000F10508950E94FE05F198F09AF498F79A8B
:100E000042E055270E94E7050E94F10508950E94DF
:100E1000FE05F198F09AF498F79843E055270E9460
:100E2000E7050E94F10508950E94FE05F198F09AE9
:100E3000F498F79A43E055270E94E7050E94F105D0
:100E400008950E94FE050E94A3040E94A805F19A3D
:100E5000F098F49840E055270E94E7050E94F105BC
:100E600008950E94FE05F198F09AF49840E0552705
:100E70000E94E7050E94F1058895FECF08950E9423
:100E8000FE05F198F098F49840E055270E94E70598
:100E90000E94F10508950E94FE050895FFB6F8949A
:100EA000F39A9FE70E94C005FFBE0895FFB6F8942D
:100EB000F3980E94C005FFBE08950E94F1050895B1
:100EC0000F9300E0F3990A950E9489040F91089509
:100ED000F09808950E9498040095000000000E9478
:100EE000890408950F9302E00E9489040000000025
:100EF00001E00E9489040F9108950F93F9E0E0E06A
:100F000005910E9489040023D9F70F9108950E944A
:100F10009804602E08950F9301E00E948904000058
:100F2000000000E00E9489040F910895062D0E94A0
:100F3000890408950E94FE050F9308E0B02E00E09A
:100F4000C02E03ED0E94D705F198F098F498F29A1C
:100F50000E94E7050E94F1050F910895289A00006C
:100F6000289808950E94FE05F29808950F93092D80
:100F70000E9489040F9108950FEF0AB90EE608B98F
:100F800007E107B90AEA0BB900004098409A992492
:100F90000FEFA02EABB89AB8002702E005B90FE218
:100FA00004B903EE009364000FEF0DBF08E00EBF1D
:100FB0009EBA0E94B7050E949804E02FEE0FF1E060
:060FC000FF1F0995F8CFA8
:00000001FF
