:020000020000FC
:100000000C948D080C9434000C9434000C9434003F
:100010000C9434000C9434000C9434000C94340090
:100020000C9434000C9434000C9434000C947D0532
:100030000C9434000C9434000C9434000C94340070
:100040000C9434000C9434000C9434000C94340060
:100050000C9434000C9434000C9434000C94340050
:0A0060000C9434000C943400189541
:100400000C94AF080C94AF080C94AF080C94AF0890
:100410000C94DA060C94AF080C94AF080C94AF0857
:100420000C94AF080C94AF080C94AF080C94AF0870
:100430000C94AF080C94AF080C94AF080C94AF0860
:100440000C94DE060C94AF080C94AF080C94AF0823
:100450000C94E7060C94AF080C94F8060C9409076A
:100460000C94AF080C94AF080C94AF080C94AF0830
:100470000C941A070C94AF080C9426070C943307BD
:100480000C9440070C94AF080C94AF080C94AF0880
:100490000C9444070C94AF080C94AF080C94AF086C
:1004A0000C94AF080C94AF080C94AF080C94AF08F0
:1004B0000C9455070C94AF080C94AF080C94AF083B
:1004C0000C94AF080C94AF080C94AF080C94AF08D0
:1004D0000C94AF080C94AF080C94AF080C94AF08C0
:1004E0000C94AF080C94AF080C94AF080C94AF08B0
:1004F0000C94AF080C94AF080C94AF080C94AF08A0
:100500000C9462070C94AF080C94AF080C94AF08DD
:100510000C94AF080C94AF080C94AF080C94AF087F
:100520000C9475070C94AF080C94AF080C94AF08AA
:100530000C94AF080C94AF080C94AF080C94AF085F
:100540000C94AF080C94AF080C94AF080C94AF084F
:100550000C94AF080C94AF080C94AF080C94AF083F
:100560000C94AF080C94AF080C94AF080C94AF082F
:100570000C94AF080C94AF080C94AF080C94AF081F
:100580000C94AF080C94AF080C94AF080C94AF080F
:100590000C94AF080C94AF080C94AF080C94AF08FF
:1005A0000C94AF080C94AF080C94AF080C94AF08EF
:1005B0000C94AF080C94AF080C94AF080C94AF08DF
:1005C0000C94AF080C94AF080C94AF080C94AF08CF
:1005D0000C947A070C948B070C949C070C94AD0731
:1005E0000C94AF080C94AF080C94AF080C94AF08AF
:1005F0000C94BE070C94CB070C94D8070C94E50719
:100600000C94F2070C94AF080C94AF080C94AF084C
:100610000C94AF080C94AF080C94AF080C94AF087E
:100620000C94AF080C94AF080C94AF080C94AF086E
:100630000C94AF080C94AF080C94AF080C94AF085E
:100640000C9402080C9410080C94AF080C94AF089A
:100650000C94AF080C94AF080C94AF080C94AF083E
:100660000C9455070C9444070C94AF080C94AF08F5
:100670000C94AF080C94AF080C94AF080C94AF081E
:100680000C94AF080C94AF080C94AF080C94AF080E
:100690000C94AF080C94AF080C94AF080C94AF08FE
:1006A0000C94AF080C94AF080C94AF080C94AF08EE
:1006B0000C94AF080C94AF080C94AF080C94AF08DE
:1006C0000C94AF080C94AF080C94AF080C94AF08CE
:1006D0000C94AF080C94AF080C94AF080C94AF08BE
:1006E0000C94AF080C94AF080C94AF080C94AF08AE
:1006F0000C94AF080C94AF080C94AF080C94AF089E
:100700000C94AF080C94AF080C94AF080C94AF088D
:100710000C94AF080C94AF080C94AF080C94AF087D
:100720000C94AF080C94AF080C94AF080C94AF086D
:100730000C94AF080C94AF080C94AF080C94AF085D
:100740000C941C080C941F080C94AF080C942708F8
:100750000C942E080C94AF080C94AF080C94AF08BE
:100760000C9431080C94AF080C9439080C94AF0821
:100770000C94AF080C94AF080C94AF080C94AF081D
:100780000C943B080C9443080C94AF080C944E084E
:100790000C9458080C945C080C94AF080C94AF08A7
:1007A0000C9467080C94AF080C94AF080C94AF0835
:1007B0000C94AF080C94AF080C94AF080C94AF08DD
:1007C0000C946B080C94AF080C947F080C94AF0841
:1007D0000C9483080C94AF080C94AF080C94AF08E9
:1007E0000C9487080C94AF080C94AF080C94AF08D5
:1007F0000C94AF080C94AF080C94AF080C94AF089D
:100800000008101820283038404850586068707828
:1008100080889098A0A8B0B8C0C8D0D8E0E8F0F818
:10082000FFF8F0E8E0D8D0C8C0B8B0A8A098908889
:100830008078706860585048403830282018100878
:1008400000081018202830384048505860687078E8
:1008500080889098A0A8B0B8C0C8D0D8E0E8F0F8D8
:10086000FFF8F0E8E0D8D0C8C0B8B0A8A098908849
:100870008078706860585048403830282018100838
:1008800000081018202830384048505860687078A8
:1008900080889098A0A8B0B8C0C8D0D8E0E8F0F898
:1008A000FFF8F0E8E0D8D0C8C0B8B0A8A098908809
:1008B00080787068605850484038302820181008F8
:1008C0000008101820283038404850586068707868
:1008D00080889098A0A8B0B8C0C8D0D8E0E8F0F858
:1008E000FFF8F0E8E0D8D0C8C0B8B0A8A0989088C9
:1008F00080787068605850484038302820181008B8
:100900004C41425320426C6173746572426F617254
:1009100064000F930A2D0E9499040F910E9499047C
:1009200008950F9300270E9499040F910E94990443
:1009300008950F93299800000000000000000000B7
:1009400000000000000000000000000000000000A7
:1009500000000000069518F40000299A03C02998A9
:100960000000000000000000000000000000000087
:1009700000000000000000000000000000000695DC
:1009800018F40000299A03C0299800000000000014
:100990000000000000000000000000000000000057
:1009A0000000000000000000069518F40000299ADD
:1009B00003C02998000000000000000000000000B3
:1009C0000000000000000000000000000000000027
:1009D0000000069518F40000299A03C02998000029
:1009E0000000000000000000000000000000000007
:1009F000000000000000000000000000069518F450
:100A00000000299A03C0299800000000000000009F
:100A100000000000000000000000000000000000D6
:100A2000000000000000069518F40000299A03C099
:100A300029980000000000000000000000000000F5
:100A400000000000000000000000000000000000A6
:100A5000069518F40000299A03C0299800000000A8
:100A60000000000000000000000000000000000086
:100A700000000000000000000000069518F40000CF
:100A8000299A03C02998000000000000000000001F
:100A90000000000000000000000000000000000056
:100AA000000000000000299A0F9108953599FECFAB
:100AB000FFB6F894AAB80BB900004098409AABB8BA
:100AC00000009AB800000E948904FFBE0895339B7D
:100AD000FECFFFB6F89441980000000009B1419A9A
:100AE0000E949104FFBE08950F930E946705E02EB7
:100AF0000E946705D02E0F9108953F933FB73F9313
:100B0000F499A7C0F299AFC0F199A9C0442319F490
:100B10000E943E068DC0552361F4892E0E943E0638
:100B2000F79B03C0F798662783C0792E982D542F22
:100B300007C0000000000000000000000E949106B5
:100B40007F924230D9F0433071F10F931F932F936E
:100B50003F9301E0502E352F330F3250332319F0DD
:100B600076943A95E9F7072D0370702E0170102FD7
:100B7000272D2270362F3395339538C00F931F934E
:100B80002F933F9305E0502E523021F476947694C3
:100B900076947694072D0F70702E0770102F272DE6
:100BA0002870362F23C00F931F932F933F9303E09A
:100BB000502E533031F476947694769476947694DD
:100BC00004C0523059F476947694072D0770702E35
:100BD0000370102F272D2470362F08C0072D0370A7
:100BE000702E0170102F272D2270362F332319F00D
:100BF000000F3A95E9F7222321F0900F28F49FEF98
:100C000003C0901B08F49927151520F0643010F4E8
:100C1000639505C0112319F4662309F06A953F9185
:100C20002F911F910F917F905A95552309F00DC078
:100C3000815058F4715048F4289A00002898F09B8D
:100C40000E94CF06F0990E9479063F913FBF3F91E5
:100C5000189544980000449A00004498E9CF9FE713
:100C60000E949106E5CFFF93EF93FB2DEC2D94911D
:100C70000E949106C394EF91FF91E7CF449A000040
:100C800044980E949106000000000000000000004F
:100C90000000000000000000000000000000000054
:100CA0000000000000000000000000000000000044
:100CB0000000000000000000000000000000000034
:100CC0000000000000000000000000000000000024
:100CD000000000000000429800000000000000003A
:100CE000000099B100000000000000000000429ADE
:100CF00008958E2D7D2D08950F931F9303E018E91D
:100D00001A95F1F70A95E1F700001F910F910895E8
:100D10000F9300E50CBD9DBC0F91F3980E949106C6
:100D200008950F931F93F39B9FE7092F0295102FB0
:100D30000F700063107F2A980EBD0DB507FFFDCF21
:100D40001EBD0DB507FFFDCF2A9A1F910F91089583
:100D50000F931F931127186010938100019514E1E0
:100D6000019F10928900009288001F910F910895B1
:100D70000F93002700938000009385000093840068
:100D80000F9108950F9302E000936F00009181008E
:100D9000097F0160009381000F9178940895F89481
:100DA0000F9300918100087F009381000F91909232
:100DB0006F00089508E80E94560508950E9467058F
:100DC000902FFFB6F8940E949106FFBE08950E94EE
:100DD000CF060E9474050E947906F198F098F49865
:100DE000F79840E055270E94B8060E94C206089571
:100DF0000E94CF060E9474050E947906F198F0982F
:100E0000F498F79844E055270E94B8060E94C2065D
:100E100008950E94CF060E9474050E947906F198F9
:100E2000F098F498F79A44E055270E94B8060E947B
:100E3000C20608950E94CF06F198F09AF49840E017
:100E400055270E94B8060E94C20608950E94CF0648
:100E5000F198F09AF498F79844E055270E94B80664
:100E60000E94C20608950E94CF06F198F09AF49865
:100E7000F79A44E055270E94B8060E94C2060895DA
:100E80000FE70E94560508950E94CF060E94740540
:100E90000E947906F198F098F49AF79840E0552767
:100EA0000E94B8060E94C20608950E94CF06F198DB
:100EB000F09AF49AF79840E055270E94B8060E94ED
:100EC000C20608950E94CF060E946705013F28F4DC
:100ED000063038F00E94A806089500EF0E94A80688
:100EE000089506E00E94A80608950E9474050E94D5
:100EF000790608950E94CF060E9474050E94790623
:100F0000F198F098F498F79842E055270E94B806B7
:100F10000E94C20608950E94CF060E9474050E9496
:100F20007906F198F098F498F79A42E055270E94D4
:100F3000B8060E94C20608950E94CF060E9474055A
:100F40000E947906F198F098F498F79843E05527B5
:100F50000E94B8060E94C20608950E94CF060E9411
:100F600074050E947906F198F098F498F79A43E096
:100F700055270E94B8060E94C20608950E94CF0617
:100F8000F198F09AF498F79842E055270E94B80635
:100F90000E94C20608950E94CF06F198F09AF49834
:100FA000F79A42E055270E94B8060E94C2060895AB
:100FB0000E94CF06F198F09AF498F79843E05527ED
:100FC0000E94B8060E94C20608950E94CF06F198BA
:100FD000F09AF498F79A43E055270E94B8060E94C9
:100FE000C20608950E94CF060E9474050E947906E9
:100FF000F19AF098F49840E055270E94B8060E94B4
:10100000C20608950E94CF06F198F09AF49840E045
:1010100055270E94B8060E94C2068895FECF089503
:101020000E94CF06F198F098F49840E055270E946E
:10103000B8060E94C20608950E94CF060895FFB622
:10104000F894F39A9FE70E949106FFBE0895FFB6B9
:10105000F894F3980E949106FFBE08950E94C2067C
:1010600008950F9300E0F3990A950E9456050F9199
:101070000895F09808950E9467050095000000000B
:101080000E94560508950F9302E00E945605000045
:10109000000001E00E9456050F9108950F93F9E0BA
:1010A000E0E005910E9456050023D9F70F910895BD
:1010B0000E946705602E08950F9301E00E94560577
:1010C0000000000000E00E9456050F910895062DD3
:1010D0000E94560508950E94CF060F9308E0B02E97
:1010E00000E0C02E03ED0E94A806F198F098F49855
:1010F000F29A0E94B8060E94C2060F910895289A9B
:101100000000289808950E94CF06F29808950F9342
:10111000092D0E9456050F9108950FEF0AB90EE6AA
:1011200008B907E107B90AEA0BB900004098409AEC
:1011300099240FEFA02EABB89AB8002702E005B9AA
:101140000FE204B903EE009364000FEF0DBF08E057
:101150000EBF9EBA0E9488060AEA0E9499040E9465
:0E1160006705E02FEE0FF1E0FF1F0995F8CFB5
:00000001FF
