:020000020000FC
:100000000C944D060C9434000C9434000C94340081
:100010000C9434000C9434000C9434000C94340090
:100020000C9434000C9434000C9434000C94AC0404
:100030000C9434000C9434000C9434000C94340070
:100040000C9434000C9434000C9434000C94340060
:100050000C9434000C9434000C9434000C94340050
:0A0060000C9434000C943400189541
:100400000C9468060C9468060C9468060C946806B4
:100410000C9468060C9468060C9468060C946806A4
:100420000C9468060C9468060C9468060C94680694
:100430000C9468060C9468060C9468060C94680684
:100440000C9476050C9468060C9468060C94680667
:100450000C947F050C9468060C948D050C948D0506
:100460000C9468060C9468060C9468060C94680654
:100470000C948E050C9468060C9498050C949805C1
:100480000C9498050C9468060C9468060C94680605
:100490000C9499050C9468060C9468060C946806F4
:1004A0000C9468060C9468060C9468060C94680614
:1004B0000C9468060C9468060C9468060C94680604
:1004C0000C9468060C9468060C9468060C946806F4
:1004D0000C9468060C9468060C9468060C946806E4
:1004E0000C9468060C9468060C9468060C946806D4
:1004F0000C9468060C9468060C9468060C946806C4
:100500000C94A7050C9468060C9468060C94680675
:100510000C9468060C9468060C9468060C946806A3
:100520000C94BA050C9468060C9468060C94680642
:100530000C9468060C9468060C9468060C94680683
:100540000C9468060C9468060C9468060C94680673
:100550000C9468060C9468060C9468060C94680663
:100560000C9468060C9468060C9468060C94680653
:100570000C9468060C9468060C9468060C94680643
:100580000C9468060C9468060C9468060C94680633
:100590000C9468060C9468060C9468060C94680623
:1005A0000C9468060C9468060C9468060C94680613
:1005B0000C9468060C9468060C9468060C94680603
:1005C0000C9468060C9468060C9468060C946806F3
:1005D0000C94BF050C94BF050C94BF050C94BF058B
:1005E0000C9468060C9468060C9468060C946806D3
:1005F0000C94BF050C94BF050C94BF050C94BF056B
:100600000C94C0050C9468060C9468060C9468065B
:100610000C9468060C9468060C9468060C946806A2
:100620000C9468060C9468060C9468060C94680692
:100630000C9468060C9468060C9468060C94680682
:100640000C94CE050C94DA050C9468060C9468069C
:100650000C9468060C9468060C9468060C94680662
:100660000C94E4050C94E4050C9468060C9468065C
:100670000C9468060C9468060C9468060C94680642
:100680000C9468060C9468060C9468060C94680632
:100690000C9468060C9468060C9468060C94680622
:1006A0000C9468060C9468060C9468060C94680612
:1006B0000C9468060C9468060C9468060C94680602
:1006C0000C9468060C9468060C9468060C946806F2
:1006D0000C9468060C9468060C9468060C946806E2
:1006E0000C9468060C9468060C9468060C946806D2
:1006F0000C9468060C9468060C9468060C946806C2
:100700000C9468060C9468060C9468060C946806B1
:100710000C9468060C9468060C9468060C946806A1
:100720000C9468060C9468060C9468060C94680691
:100730000C9468060C9468060C9468060C94680681
:100740000C94E5050C94E8050C9468060C94F005EF
:100750000C94F7050C9468060C9468060C946806D3
:100760000C94FA050C9468060C9402060C94680626
:100770000C9468060C9468060C9468060C94680641
:100780000C9404060C940C060C9468060C94170642
:100790000C9421060C9468060C9468060C94680668
:1007A0000C9425060C9468060C9468060C94680654
:1007B0000C9468060C9468060C9429060C942A067E
:1007C0000C9468060C9468060C942B060C9468062E
:1007D0000C942F060C9443060C9468060C9468063F
:1007E0000C9447060C9468060C9468060C946806F2
:1007F0000C9468060C9468060C9468060C946806C1
:100800000008101820283038404850586068707828
:1008100080889098A0A8B0B8C0C8D0D8E0E8F0F818
:10082000FFF8F0E8E0D8D0C8C0B8B0A8A098908889
:100830008078706860585048403830282018100878
:1008400000081018202830384048505860687078E8
:1008500080889098A0A8B0B8C0C8D0D8E0E8F0F8D8
:10086000FFF8F0E8E0D8D0C8C0B8B0A8A098908849
:100870008078706860585048403830282018100838
:1008800000081018202830384048505860687078A8
:1008900080889098A0A8B0B8C0C8D0D8E0E8F0F898
:1008A000FFF8F0E8E0D8D0C8C0B8B0A8A098908809
:1008B00080787068605850484038302820181008F8
:1008C0000008101820283038404850586068707868
:1008D00080889098A0A8B0B8C0C8D0D8E0E8F0F858
:1008E000FFF8F0E8E0D8D0C8C0B8B0A8A0989088C9
:1008F00080787068605850484038302820181008B8
:100900004C41425320426C6173746572426F617254
:1009100064003599FECFFFB6F8945AB90BB90000C0
:100920004098409A5BB900004AB90000FFBE0895A4
:10093000339BFECFFFB6F89441980000000009B148
:10094000419AFFBE08950F930E949804E02E0E94E2
:100950009804D02E0F9108953F933FB73F93F59998
:100960004FC0F39957C0F29951C0449A000044987F
:100970000E942D05000000000000000000000000A3
:100980000000000000000000000000000000000067
:100990000000000000000000000000000000000057
:1009A0000000000000000000000000000000000047
:1009B0000000000000000000000000000000000037
:1009C000000000004298000000000000000000004D
:1009D00099B100000000000000000000429A815020
:1009E00058F4715048F4289A00002898F19B0E940E
:1009F0006B05F1990E9415053F913FBF3F911895F6
:100A000044980000449A00004498E9CF9FE70E9470
:100A10002D05E5CFFF93EF93FA2DEB2D94910E94D6
:100A20002D05B394EF91FF91E7CF8E2D7D2D089585
:100A30000F931F9303E018E91A95F1F70A95E1F770
:100A400000001F910F9108950F9300E50CBD4DBD5F
:100A50000F91F4980E942D0508950F931F93F49B16
:100A60009FE7092F0295102F0F700063107F2A98BF
:100A70000EBD0DB507FFFDCF1EBD0DB507FFFDCFA8
:100A80002A9A1F910F9108950F931F9311271860B1
:100A900010938100019514E1019F1092890000924A
:100AA00088001F910F9108950F93002700938000F5
:100AB00000938500009384000F9108950F9302E046
:100AC00000936F0000918100097F01600093810015
:100AD0000F9178940895F8940F9300918100087F06
:100AE000009381000F9140936F0008950E94980435
:100AF000902FFFB6F8940E942D05FFBE08950E9426
:100B00006B050E94A3040E941505F298F198F598D0
:100B10000E9454050E945E05089508950E946B0589
:100B2000F298F19AF5980E9454050E945E05089586
:100B300008950E946B050E94A3040E941505F29877
:100B4000F198F59A0E9454050E945E0508950E944E
:100B50006B050E949804013F28F4063038F00E948B
:100B60004405089501EF0E944405089506E00E949F
:100B7000440508950E94A3040E9415050895089550
:100B80000E946B050E94A3040E941505F29AF19839
:100B9000F5980E9454050E945E0508950E946B0519
:100BA000F298F19AF5980E9454050E945E05889586
:100BB000FECF08950E946B05F298F198F5980E9477
:100BC00054050E945E05089508950E946B050895DE
:100BD000FFB6F894F49A9FE70E942D05FFBE089592
:100BE000FFB6F894F4980E942D05FFBE08950E9468
:100BF0005E0508950F9300E0F4990A950E94890418
:100C00000F910895F19808950E94980400950000AE
:100C100000000E94890408950F9302E00E94890455
:100C20000000000001E00E9489040F9108950F93D5
:100C3000F9E0E0E005910E9489040023D9F70F91C3
:100C400008950E949804602F0895062F0E94890439
:100C5000089508950895289A0000289808950E94FC
:100C60006B050F9308E0A02E00E0B02E03ED0E946C
:100C70004405F298F198F598F39A0E9454050E9461
:100C80005E050F9108950E946B05F39808950F93E8
:100C9000042F0E9489040F9108955FEF5AB90EE660
:100CA00008B907E107B90AEA0BB900004098409A71
:100CB00044275BB94AB945B90FE204B903EE009382
:100CC00064000FEF0DBF08E00EBF4EBB0E9424056D
:100CD0000E949804E02FEE0FF1E0FF1F0995F8CF76
:00000001FF
